{
  "contractName": "Image",
  "abi": [
    {
      "inputs": [],
      "payable": false,
      "stateMutability": "nonpayable",
      "type": "constructor"
    },
    {
      "constant": true,
      "inputs": [
        {
          "internalType": "uint256",
          "name": "",
          "type": "uint256"
        }
      ],
      "name": "contentList",
      "outputs": [
        {
          "internalType": "string",
          "name": "",
          "type": "string"
        }
      ],
      "payable": false,
      "stateMutability": "view",
      "type": "function"
    },
    {
      "constant": true,
      "inputs": [],
      "name": "listSize",
      "outputs": [
        {
          "internalType": "uint256",
          "name": "",
          "type": "uint256"
        }
      ],
      "payable": false,
      "stateMutability": "view",
      "type": "function"
    },
    {
      "constant": false,
      "inputs": [
        {
          "internalType": "string",
          "name": "_imageHash",
          "type": "string"
        },
        {
          "internalType": "string",
          "name": "_type",
          "type": "string"
        },
        {
          "internalType": "string",
          "name": "_name",
          "type": "string"
        }
      ],
      "name": "set",
      "outputs": [],
      "payable": false,
      "stateMutability": "nonpayable",
      "type": "function"
    },
    {
      "constant": true,
      "inputs": [
        {
          "internalType": "uint256",
          "name": "ind",
          "type": "uint256"
        }
      ],
      "name": "get",
      "outputs": [
        {
          "internalType": "string",
          "name": "",
          "type": "string"
        }
      ],
      "payable": false,
      "stateMutability": "view",
      "type": "function"
    },
    {
      "constant": true,
      "inputs": [],
      "name": "getListSize",
      "outputs": [
        {
          "internalType": "uint256",
          "name": "",
          "type": "uint256"
        }
      ],
      "payable": false,
      "stateMutability": "view",
      "type": "function"
    }
  ],
  "bytecode": "0x608060405234801561001057600080fd5b50600080819055506107bb806100276000396000f3fe608060405234801561001057600080fd5b50600436106100575760003560e01c80634a89a6c81461005c578063718e52c01461007a5780639507d39a14610121578063972c5356146101c8578063da465d74146101e6575b600080fd5b6100646103cf565b6040518082815260200191505060405180910390f35b6100a66004803603602081101561009057600080fd5b81019080803590602001909291905050506103d8565b6040518080602001828103825283818151815260200191508051906020019080838360005b838110156100e65780820151818401526020810190506100cb565b50505050905090810190601f1680156101135780820380516001836020036101000a031916815260200191505b509250505060405180910390f35b61014d6004803603602081101561013757600080fd5b8101908080359060200190929190505050610488565b6040518080602001828103825283818151815260200191508051906020019080838360005b8381101561018d578082015181840152602081019050610172565b50505050905090810190601f1680156101ba5780820380516001836020036101000a031916815260200191505b509250505060405180910390f35b6101d061053d565b6040518082815260200191505060405180910390f35b6103cd600480360360608110156101fc57600080fd5b810190808035906020019064010000000081111561021957600080fd5b82018360208201111561022b57600080fd5b8035906020019184600183028401116401000000008311171561024d57600080fd5b91908080601f016020809104026020016040519081016040528093929190818152602001838380828437600081840152601f19601f820116905080830192505050505050509192919290803590602001906401000000008111156102b057600080fd5b8201836020820111156102c257600080fd5b803590602001918460018302840111640100000000831117156102e457600080fd5b91908080601f016020809104026020016040519081016040528093929190818152602001838380828437600081840152601f19601f8201169050808301925050505050505091929192908035906020019064010000000081111561034757600080fd5b82018360208201111561035957600080fd5b8035906020019184600183028401116401000000008311171561037b57600080fd5b91908080601f016020809104026020016040519081016040528093929190818152602001838380828437600081840152601f19601f820116905080830192505050505050509192919290505050610543565b005b60008054905090565b60016020528060005260406000206000915090508054600181600116156101000203166002900480601f0160208091040260200160405190810160405280929190818152602001828054600181600116156101000203166002900480156104805780601f1061045557610100808354040283529160200191610480565b820191906000526020600020905b81548152906001019060200180831161046357829003601f168201915b505050505081565b6060600160008381526020019081526020016000208054600181600116156101000203166002900480601f0160208091040260200160405190810160405280929190818152602001828054600181600116156101000203166002900480156105315780601f1061050657610100808354040283529160200191610531565b820191906000526020600020905b81548152906001019060200180831161051457829003601f168201915b50505050509050919050565b60005481565b600160008082825401925050819055508282826040516020018084805190602001908083835b6020831061058c5780518252602082019150602081019050602083039250610569565b6001836020036101000a038019825116818451168082178552505050505050905001807f2c0000000000000000000000000000000000000000000000000000000000000081525060010183805190602001908083835b6020831061060557805182526020820191506020810190506020830392506105e2565b6001836020036101000a038019825116818451168082178552505050505050905001807f2c0000000000000000000000000000000000000000000000000000000000000081525060010182805190602001908083835b6020831061067e578051825260208201915060208101905060208303925061065b565b6001836020036101000a0380198251168184511680821785525050505050509050019350505050604051602081830303815290604052600160008054815260200190815260200160002090805190602001906106db9291906106e1565b50505050565b828054600181600116156101000203166002900490600052602060002090601f016020900481019282601f1061072257805160ff1916838001178555610750565b82800160010185558215610750579182015b8281111561074f578251825591602001919060010190610734565b5b50905061075d9190610761565b5090565b61078391905b8082111561077f576000816000905550600101610767565b5090565b9056fea265627a7a72315820f3cf404691c7d34adf8b2dd757009152f438700994749fe0f2292139d33fdf3264736f6c63430005100032",
  "source": "pragma solidity >=0.4.21 <0.6.0;\n\n\ncontract Image{\n  uint public listSize;\n  mapping (uint => string) public contentList;\n\n  constructor () public {\n    listSize = 0;\n  }\n  \n  ///write function\n  function set(string memory _imageHash, string memory _type, string memory _name) public {\n    listSize += 1;\n    contentList[listSize] = string(abi.encodePacked(_imageHash,\",\",_type,\",\",_name));\n  }\n\n  //read function\n  function get(uint ind) public view returns (string memory) {\n    return contentList[ind];\n  }\n\n  function getListSize() public view returns (uint) {\n    return listSize;\n  }\n\n}\n\n",
  "sourcePath": "C:\\Users\\Navya\\audio\\src\\contracts\\Music.sol",
  "compiler": {
    "name": "solc",
    "version": "0.5.16+commit.9c3226ce.Emscripten.clang"
  },
  "schemaVersion": "3.4.4",
  "updatedAt": "2022-02-11T10:57:21.445Z",
  "devdoc": {
    "methods": {}
  },
  "userdoc": {
    "methods": {
      "set(string,string,string)": {
        "notice": "write function"
      }
    }
  }
}